{
  "_format": "hh-sol-artifact-1",
  "contractName": "Marketplace",
  "sourceName": "contracts/Marketplace.sol",
  "abi": [
    {
      "inputs": [],
      "stateMutability": "nonpayable",
      "type": "constructor"
    },
    {
      "anonymous": false,
      "inputs": [
        {
          "indexed": true,
          "internalType": "uint256",
          "name": "itemId",
          "type": "uint256"
        },
        {
          "indexed": true,
          "internalType": "address",
          "name": "nftContract",
          "type": "address"
        },
        {
          "indexed": true,
          "internalType": "uint256",
          "name": "tokenId",
          "type": "uint256"
        },
        {
          "indexed": false,
          "internalType": "address",
          "name": "seller",
          "type": "address"
        },
        {
          "indexed": false,
          "internalType": "address",
          "name": "owner",
          "type": "address"
        },
        {
          "indexed": false,
          "internalType": "uint256",
          "name": "price",
          "type": "uint256"
        },
        {
          "indexed": false,
          "internalType": "bool",
          "name": "sold",
          "type": "bool"
        }
      ],
      "name": "PhotoNFTCreated",
      "type": "event"
    },
    {
      "inputs": [
        {
          "internalType": "address",
          "name": "nftContract",
          "type": "address"
        },
        {
          "internalType": "uint256",
          "name": "itemId",
          "type": "uint256"
        }
      ],
      "name": "createMarketSale",
      "outputs": [],
      "stateMutability": "payable",
      "type": "function"
    },
    {
      "inputs": [
        {
          "internalType": "address",
          "name": "nftContract",
          "type": "address"
        },
        {
          "internalType": "uint256",
          "name": "tokenId",
          "type": "uint256"
        },
        {
          "internalType": "uint256",
          "name": "price",
          "type": "uint256"
        }
      ],
      "name": "createPhotoNFT",
      "outputs": [],
      "stateMutability": "payable",
      "type": "function"
    },
    {
      "inputs": [],
      "name": "fetchMyPhotoNFTs",
      "outputs": [
        {
          "components": [
            {
              "internalType": "uint256",
              "name": "itemId",
              "type": "uint256"
            },
            {
              "internalType": "address",
              "name": "nftContract",
              "type": "address"
            },
            {
              "internalType": "uint256",
              "name": "tokenId",
              "type": "uint256"
            },
            {
              "internalType": "address payable",
              "name": "seller",
              "type": "address"
            },
            {
              "internalType": "address payable",
              "name": "owner",
              "type": "address"
            },
            {
              "internalType": "uint256",
              "name": "price",
              "type": "uint256"
            },
            {
              "internalType": "bool",
              "name": "sold",
              "type": "bool"
            }
          ],
          "internalType": "struct Marketplace.PhotoNFT[]",
          "name": "",
          "type": "tuple[]"
        }
      ],
      "stateMutability": "view",
      "type": "function"
    },
    {
      "inputs": [],
      "name": "fetchPhotoNFTsCreated",
      "outputs": [
        {
          "components": [
            {
              "internalType": "uint256",
              "name": "itemId",
              "type": "uint256"
            },
            {
              "internalType": "address",
              "name": "nftContract",
              "type": "address"
            },
            {
              "internalType": "uint256",
              "name": "tokenId",
              "type": "uint256"
            },
            {
              "internalType": "address payable",
              "name": "seller",
              "type": "address"
            },
            {
              "internalType": "address payable",
              "name": "owner",
              "type": "address"
            },
            {
              "internalType": "uint256",
              "name": "price",
              "type": "uint256"
            },
            {
              "internalType": "bool",
              "name": "sold",
              "type": "bool"
            }
          ],
          "internalType": "struct Marketplace.PhotoNFT[]",
          "name": "",
          "type": "tuple[]"
        }
      ],
      "stateMutability": "view",
      "type": "function"
    },
    {
      "inputs": [],
      "name": "fetchUnsoldPhotoNFTs",
      "outputs": [
        {
          "components": [
            {
              "internalType": "uint256",
              "name": "itemId",
              "type": "uint256"
            },
            {
              "internalType": "address",
              "name": "nftContract",
              "type": "address"
            },
            {
              "internalType": "uint256",
              "name": "tokenId",
              "type": "uint256"
            },
            {
              "internalType": "address payable",
              "name": "seller",
              "type": "address"
            },
            {
              "internalType": "address payable",
              "name": "owner",
              "type": "address"
            },
            {
              "internalType": "uint256",
              "name": "price",
              "type": "uint256"
            },
            {
              "internalType": "bool",
              "name": "sold",
              "type": "bool"
            }
          ],
          "internalType": "struct Marketplace.PhotoNFT[]",
          "name": "",
          "type": "tuple[]"
        }
      ],
      "stateMutability": "view",
      "type": "function"
    },
    {
      "inputs": [],
      "name": "getListingPrice",
      "outputs": [
        {
          "internalType": "uint256",
          "name": "",
          "type": "uint256"
        }
      ],
      "stateMutability": "view",
      "type": "function"
    },
    {
      "inputs": [
        {
          "internalType": "uint256",
          "name": "_amount",
          "type": "uint256"
        }
      ],
      "name": "withdraw",
      "outputs": [],
      "stateMutability": "nonpayable",
      "type": "function"
    }
  ],
  "bytecode": "0x6080604052670de0b6b3a764000060045534801561001c57600080fd5b50600160008190555033600360006101000a81548173ffffffffffffffffffffffffffffffffffffffff021916908373ffffffffffffffffffffffffffffffffffffffff160217905550611b30806100756000396000f3fe6080604052600436106100705760003560e01c8063c1de04d41161004e578063c1de04d4146100f4578063c23b139e14610110578063f8b683e71461012c578063fb5f660e1461015757610070565b806312e855851461007557806319aa5adc146100a05780632e1a7d4d146100cb575b600080fd5b34801561008157600080fd5b5061008a610182565b60405161009791906117cc565b60405180910390f35b3480156100ac57600080fd5b506100b561018c565b6040516100c2919061170a565b60405180910390f35b3480156100d757600080fd5b506100f260048036038101906100ed9190611449565b6104a2565b005b61010e600480360381019061010991906113fa565b61059e565b005b61012a600480360381019061012591906113be565b610902565b005b34801561013857600080fd5b50610141610bbb565b60405161014e919061170a565b60405180910390f35b34801561016357600080fd5b5061016c610f55565b604051610179919061170a565b60405180910390f35b6000600454905090565b6060600061019a60016112ef565b905060006101a860026112ef565b6101b260016112ef565b6101bc9190611887565b90506000808267ffffffffffffffff811115610201577f4e487b7100000000000000000000000000000000000000000000000000000000600052604160045260246000fd5b60405190808252806020026020018201604052801561023a57816020015b610227611313565b81526020019060019003908161021f5790505b50905060005b8481101561049757600073ffffffffffffffffffffffffffffffffffffffff16600560006001846102719190611831565b815260200190815260200160002060040160009054906101000a900473ffffffffffffffffffffffffffffffffffffffff1673ffffffffffffffffffffffffffffffffffffffff1614156104845760006001826102ce9190611831565b90506000600560008381526020019081526020016000209050806040518060e0016040529081600082015481526020016001820160009054906101000a900473ffffffffffffffffffffffffffffffffffffffff1673ffffffffffffffffffffffffffffffffffffffff1673ffffffffffffffffffffffffffffffffffffffff168152602001600282015481526020016003820160009054906101000a900473ffffffffffffffffffffffffffffffffffffffff1673ffffffffffffffffffffffffffffffffffffffff1673ffffffffffffffffffffffffffffffffffffffff1681526020016004820160009054906101000a900473ffffffffffffffffffffffffffffffffffffffff1673ffffffffffffffffffffffffffffffffffffffff1673ffffffffffffffffffffffffffffffffffffffff168152602001600582015481526020016006820160009054906101000a900460ff161515151581525050848681518110610467577f4e487b7100000000000000000000000000000000000000000000000000000000600052603260045260246000fd5b602002602001018190525060018561047f9190611831565b945050505b808061048f90611915565b915050610240565b508094505050505090565b600360009054906101000a900473ffffffffffffffffffffffffffffffffffffffff1673ffffffffffffffffffffffffffffffffffffffff163373ffffffffffffffffffffffffffffffffffffffff1614610532576040517f08c379a00000000000000000000000000000000000000000000000000000000081526004016105299061174c565b60405180910390fd5b600360009054906101000a900473ffffffffffffffffffffffffffffffffffffffff1673ffffffffffffffffffffffffffffffffffffffff166108fc829081150290604051600060405180830381858888f1935050505015801561059a573d6000803e3d6000fd5b5050565b600260005414156105e4576040517f08c379a00000000000000000000000000000000000000000000000000000000081526004016105db9061178c565b60405180910390fd5b60026000819055506000811161062f576040517f08c379a0000000000000000000000000000000000000000000000000000000008152600401610626906117ac565b60405180910390fd5b6004543414610673576040517f08c379a000000000000000000000000000000000000000000000000000000000815260040161066a9061176c565b60405180910390fd5b61067d60016112fd565b600061068960016112ef565b90506040518060e001604052808281526020018573ffffffffffffffffffffffffffffffffffffffff1681526020018481526020013373ffffffffffffffffffffffffffffffffffffffff168152602001600073ffffffffffffffffffffffffffffffffffffffff16815260200183815260200160001515815250600560008381526020019081526020016000206000820151816000015560208201518160010160006101000a81548173ffffffffffffffffffffffffffffffffffffffff021916908373ffffffffffffffffffffffffffffffffffffffff1602179055506040820151816002015560608201518160030160006101000a81548173ffffffffffffffffffffffffffffffffffffffff021916908373ffffffffffffffffffffffffffffffffffffffff16021790555060808201518160040160006101000a81548173ffffffffffffffffffffffffffffffffffffffff021916908373ffffffffffffffffffffffffffffffffffffffff16021790555060a0820151816005015560c08201518160060160006101000a81548160ff0219169083151502179055509050508373ffffffffffffffffffffffffffffffffffffffff166323b872dd3330866040518463ffffffff1660e01b815260040161086a9392919061168e565b600060405180830381600087803b15801561088457600080fd5b505af1158015610898573d6000803e3d6000fd5b50505050828473ffffffffffffffffffffffffffffffffffffffff16827f6903fc745279ccae53d71a0e1343d9632b02c3c2ae874211cd91333686790a163360008760006040516108ec94939291906116c5565b60405180910390a4506001600081905550505050565b60026000541415610948576040517f08c379a000000000000000000000000000000000000000000000000000000000815260040161093f9061178c565b60405180910390fd5b60026000819055506000600560008381526020019081526020016000206005015490506000600560008481526020019081526020016000206002015490508134146109c8576040517f08c379a00000000000000000000000000000000000000000000000000000000081526004016109bf9061172c565b60405180910390fd5b6005600084815260200190815260200160002060030160009054906101000a900473ffffffffffffffffffffffffffffffffffffffff1673ffffffffffffffffffffffffffffffffffffffff166108fc349081150290604051600060405180830381858888f19350505050158015610a44573d6000803e3d6000fd5b508373ffffffffffffffffffffffffffffffffffffffff166323b872dd3033846040518463ffffffff1660e01b8152600401610a829392919061168e565b600060405180830381600087803b158015610a9c57600080fd5b505af1158015610ab0573d6000803e3d6000fd5b50505050336005600085815260200190815260200160002060040160006101000a81548173ffffffffffffffffffffffffffffffffffffffff021916908373ffffffffffffffffffffffffffffffffffffffff16021790555060016005600085815260200190815260200160002060060160006101000a81548160ff021916908315150217905550610b4260026112fd565b600360009054906101000a900473ffffffffffffffffffffffffffffffffffffffff1673ffffffffffffffffffffffffffffffffffffffff166108fc6004549081150290604051600060405180830381858888f19350505050158015610bac573d6000803e3d6000fd5b50505060016000819055505050565b60606000610bc960016112ef565b905060008060005b83811015610c72573373ffffffffffffffffffffffffffffffffffffffff1660056000600184610c019190611831565b815260200190815260200160002060040160009054906101000a900473ffffffffffffffffffffffffffffffffffffffff1673ffffffffffffffffffffffffffffffffffffffff161415610c5f57600183610c5c9190611831565b92505b8080610c6a90611915565b915050610bd1565b5060008267ffffffffffffffff811115610cb5577f4e487b7100000000000000000000000000000000000000000000000000000000600052604160045260246000fd5b604051908082528060200260200182016040528015610cee57816020015b610cdb611313565b815260200190600190039081610cd35790505b50905060005b84811015610f4a573373ffffffffffffffffffffffffffffffffffffffff1660056000600184610d249190611831565b815260200190815260200160002060040160009054906101000a900473ffffffffffffffffffffffffffffffffffffffff1673ffffffffffffffffffffffffffffffffffffffff161415610f37576000600182610d819190611831565b90506000600560008381526020019081526020016000209050806040518060e0016040529081600082015481526020016001820160009054906101000a900473ffffffffffffffffffffffffffffffffffffffff1673ffffffffffffffffffffffffffffffffffffffff1673ffffffffffffffffffffffffffffffffffffffff168152602001600282015481526020016003820160009054906101000a900473ffffffffffffffffffffffffffffffffffffffff1673ffffffffffffffffffffffffffffffffffffffff1673ffffffffffffffffffffffffffffffffffffffff1681526020016004820160009054906101000a900473ffffffffffffffffffffffffffffffffffffffff1673ffffffffffffffffffffffffffffffffffffffff1673ffffffffffffffffffffffffffffffffffffffff168152602001600582015481526020016006820160009054906101000a900460ff161515151581525050848681518110610f1a577f4e487b7100000000000000000000000000000000000000000000000000000000600052603260045260246000fd5b6020026020010181905250600185610f329190611831565b945050505b8080610f4290611915565b915050610cf4565b508094505050505090565b60606000610f6360016112ef565b905060008060005b8381101561100c573373ffffffffffffffffffffffffffffffffffffffff1660056000600184610f9b9190611831565b815260200190815260200160002060030160009054906101000a900473ffffffffffffffffffffffffffffffffffffffff1673ffffffffffffffffffffffffffffffffffffffff161415610ff957600183610ff69190611831565b92505b808061100490611915565b915050610f6b565b5060008267ffffffffffffffff81111561104f577f4e487b7100000000000000000000000000000000000000000000000000000000600052604160045260246000fd5b60405190808252806020026020018201604052801561108857816020015b611075611313565b81526020019060019003908161106d5790505b50905060005b848110156112e4573373ffffffffffffffffffffffffffffffffffffffff16600560006001846110be9190611831565b815260200190815260200160002060030160009054906101000a900473ffffffffffffffffffffffffffffffffffffffff1673ffffffffffffffffffffffffffffffffffffffff1614156112d157600060018261111b9190611831565b90506000600560008381526020019081526020016000209050806040518060e0016040529081600082015481526020016001820160009054906101000a900473ffffffffffffffffffffffffffffffffffffffff1673ffffffffffffffffffffffffffffffffffffffff1673ffffffffffffffffffffffffffffffffffffffff168152602001600282015481526020016003820160009054906101000a900473ffffffffffffffffffffffffffffffffffffffff1673ffffffffffffffffffffffffffffffffffffffff1673ffffffffffffffffffffffffffffffffffffffff1681526020016004820160009054906101000a900473ffffffffffffffffffffffffffffffffffffffff1673ffffffffffffffffffffffffffffffffffffffff1673ffffffffffffffffffffffffffffffffffffffff168152602001600582015481526020016006820160009054906101000a900460ff1615151515815250508486815181106112b4577f4e487b7100000000000000000000000000000000000000000000000000000000600052603260045260246000fd5b60200260200101819052506001856112cc9190611831565b945050505b80806112dc90611915565b91505061108e565b508094505050505090565b600081600001549050919050565b6001816000016000828254019250508190555050565b6040518060e0016040528060008152602001600073ffffffffffffffffffffffffffffffffffffffff16815260200160008152602001600073ffffffffffffffffffffffffffffffffffffffff168152602001600073ffffffffffffffffffffffffffffffffffffffff168152602001600081526020016000151581525090565b6000813590506113a381611acc565b92915050565b6000813590506113b881611ae3565b92915050565b600080604083850312156113d157600080fd5b60006113df85828601611394565b92505060206113f0858286016113a9565b9150509250929050565b60008060006060848603121561140f57600080fd5b600061141d86828701611394565b935050602061142e868287016113a9565b925050604061143f868287016113a9565b9150509250925092565b60006020828403121561145b57600080fd5b6000611469848285016113a9565b91505092915050565b600061147e83836115e2565b60e08301905092915050565b611493816118cd565b82525050565b6114a2816118bb565b82525050565b6114b1816118bb565b82525050565b60006114c2826117f7565b6114cc818561180f565b93506114d7836117e7565b8060005b838110156115085781516114ef8882611472565b97506114fa83611802565b9250506001810190506114db565b5085935050505092915050565b61151e816118df565b82525050565b61152d816118df565b82525050565b6000611540605683611820565b915061154b8261198d565b606082019050919050565b6000611563600f83611820565b915061156e82611a02565b602082019050919050565b6000611586602483611820565b915061159182611a2b565b604082019050919050565b60006115a9601f83611820565b91506115b482611a7a565b602082019050919050565b60006115cc601c83611820565b91506115d782611aa3565b602082019050919050565b60e0820160008201516115f86000850182611670565b50602082015161160b6020850182611499565b50604082015161161e6040850182611670565b506060820151611631606085018261148a565b506080820151611644608085018261148a565b5060a082015161165760a0850182611670565b5060c082015161166a60c0850182611515565b50505050565b6116798161190b565b82525050565b6116888161190b565b82525050565b60006060820190506116a360008301866114a8565b6116b060208301856114a8565b6116bd604083018461167f565b949350505050565b60006080820190506116da60008301876114a8565b6116e760208301866114a8565b6116f4604083018561167f565b6117016060830184611524565b95945050505050565b6000602082019050818103600083015261172481846114b7565b905092915050565b6000602082019050818103600083015261174581611533565b9050919050565b6000602082019050818103600083015261176581611556565b9050919050565b6000602082019050818103600083015261178581611579565b9050919050565b600060208201905081810360008301526117a58161159c565b9050919050565b600060208201905081810360008301526117c5816115bf565b9050919050565b60006020820190506117e1600083018461167f565b92915050565b6000819050602082019050919050565b600081519050919050565b6000602082019050919050565b600082825260208201905092915050565b600082825260208201905092915050565b600061183c8261190b565b91506118478361190b565b9250827fffffffffffffffffffffffffffffffffffffffffffffffffffffffffffffffff0382111561187c5761187b61195e565b5b828201905092915050565b60006118928261190b565b915061189d8361190b565b9250828210156118b0576118af61195e565b5b828203905092915050565b60006118c6826118eb565b9050919050565b60006118d8826118eb565b9050919050565b60008115159050919050565b600073ffffffffffffffffffffffffffffffffffffffff82169050919050565b6000819050919050565b60006119208261190b565b91507fffffffffffffffffffffffffffffffffffffffffffffffffffffffffffffffff8214156119535761195261195e565b5b600182019050919050565b7f4e487b7100000000000000000000000000000000000000000000000000000000600052601160045260246000fd5b7f54727920616761696e2120596f75206d757374207375626d697420746865206560008201527f78616374207072696365206f66207468652070686f746f204e4654207468617460208201527f20796f75207769736820746f2070757263686173652100000000000000000000604082015250565b7f4e6f7420617574686f72697a65642e0000000000000000000000000000000000600082015250565b7f5072696365206d75737420626520657175616c20746f206c697374696e67207060008201527f7269636500000000000000000000000000000000000000000000000000000000602082015250565b7f5265656e7472616e637947756172643a207265656e7472616e742063616c6c00600082015250565b7f5072696365206d757374206265206174206c6561737420312077656900000000600082015250565b611ad5816118bb565b8114611ae057600080fd5b50565b611aec8161190b565b8114611af757600080fd5b5056fea2646970667358221220d80a32d5c1349b9755bb0b832b9ab17be12f07d52b4134982b3de001416b914e64736f6c63430008040033",
  "linkReferences": {},
  "deployedLinkReferences": {}
}